{
  "contractName": "Election",
  "abi": [
    {
      "inputs": [],
      "payable": false,
      "stateMutability": "nonpayable",
      "type": "constructor"
    },
    {
      "constant": true,
      "inputs": [],
      "name": "candidate",
      "outputs": [
        {
          "internalType": "string",
          "name": "",
          "type": "string"
        }
      ],
      "payable": false,
      "stateMutability": "view",
      "type": "function"
    },
    {
      "constant": true,
      "inputs": [],
      "name": "candidateCount",
      "outputs": [
        {
          "internalType": "uint256",
          "name": "",
          "type": "uint256"
        }
      ],
      "payable": false,
      "stateMutability": "view",
      "type": "function"
    },
    {
      "constant": true,
      "inputs": [
        {
          "internalType": "uint256",
          "name": "",
          "type": "uint256"
        }
      ],
      "name": "candidates",
      "outputs": [
        {
          "internalType": "uint256",
          "name": "id",
          "type": "uint256"
        },
        {
          "internalType": "string",
          "name": "name",
          "type": "string"
        },
        {
          "internalType": "uint256",
          "name": "voteCount",
          "type": "uint256"
        }
      ],
      "payable": false,
      "stateMutability": "view",
      "type": "function"
    },
    {
      "constant": true,
      "inputs": [
        {
          "internalType": "address",
          "name": "",
          "type": "address"
        }
      ],
      "name": "voters",
      "outputs": [
        {
          "internalType": "bool",
          "name": "",
          "type": "bool"
        }
      ],
      "payable": false,
      "stateMutability": "view",
      "type": "function"
    },
    {
      "constant": false,
      "inputs": [
        {
          "internalType": "uint256",
          "name": "_candidateId",
          "type": "uint256"
        }
      ],
      "name": "vote",
      "outputs": [],
      "payable": false,
      "stateMutability": "nonpayable",
      "type": "function"
    }
  ],
  "bytecode": "0x608060405234801561001057600080fd5b506100556040518060400160405280600b81526020017f507265726e6120476172670000000000000000000000000000000000000000008152506100e260201b60201c565b6100996040518060400160405280600b81526020017f4b6f6d616c2043687567680000000000000000000000000000000000000000008152506100e260201b60201c565b6100dd6040518060400160405280600b81526020017f506172756c2047757074610000000000000000000000000000000000000000008152506100e260201b60201c565b610203565b60036000815480929190600101919050555060405180606001604052806003548152602001828152602001600081525060016000600354815260200190815260200160002060008201518160000155602082015181600101908051906020019061014d92919061015e565b506040820151816002015590505050565b828054600181600116156101000203166002900490600052602060002090601f016020900481019282601f1061019f57805160ff19168380011785556101cd565b828001600101855582156101cd579182015b828111156101cc5782518255916020019190600101906101b1565b5b5090506101da91906101de565b5090565b61020091905b808211156101fc5760008160009055506001016101e4565b5090565b90565b6104ea806102126000396000f3fe608060405234801561001057600080fd5b50600436106100575760003560e01c80630121b93f1461005c5780633477ee2e1461008a5780636c8381f81461013f578063a3ec138d146101c2578063a9a981a31461021e575b600080fd5b6100886004803603602081101561007257600080fd5b810190808035906020019092919050505061023c565b005b6100b6600480360360208110156100a057600080fd5b810190808035906020019092919050505061032f565b6040518084815260200180602001838152602001828103825284818151815260200191508051906020019080838360005b838110156101025780820151818401526020810190506100e7565b50505050905090810190601f16801561012f5780820380516001836020036101000a031916815260200191505b5094505050505060405180910390f35b6101476103f1565b6040518080602001828103825283818151815260200191508051906020019080838360005b8381101561018757808201518184015260208101905061016c565b50505050905090810190601f1680156101b45780820380516001836020036101000a031916815260200191505b509250505060405180910390f35b610204600480360360208110156101d857600080fd5b81019080803573ffffffffffffffffffffffffffffffffffffffff16906020019092919050505061048f565b604051808215151515815260200191505060405180910390f35b6102266104af565b6040518082815260200191505060405180910390f35b600260003373ffffffffffffffffffffffffffffffffffffffff1673ffffffffffffffffffffffffffffffffffffffff16815260200190815260200160002060009054906101000a900460ff161561029357600080fd5b6000811180156102a557506003548111155b6102ae57600080fd5b6001600260003373ffffffffffffffffffffffffffffffffffffffff1673ffffffffffffffffffffffffffffffffffffffff16815260200190815260200160002060006101000a81548160ff021916908315150217905550600160008281526020019081526020016000206002016000815480929190600101919050555050565b6001602052806000526040600020600091509050806000015490806001018054600181600116156101000203166002900480601f0160208091040260200160405190810160405280929190818152602001828054600181600116156101000203166002900480156103e15780601f106103b6576101008083540402835291602001916103e1565b820191906000526020600020905b8154815290600101906020018083116103c457829003601f168201915b5050505050908060020154905083565b60008054600181600116156101000203166002900480601f0160208091040260200160405190810160405280929190818152602001828054600181600116156101000203166002900480156104875780601f1061045c57610100808354040283529160200191610487565b820191906000526020600020905b81548152906001019060200180831161046a57829003601f168201915b505050505081565b60026020528060005260406000206000915054906101000a900460ff1681565b6003548156fea265627a7a72315820a38f0c0d536d5a669d4f8229c77f161a9a6f604f8e0c52da39b04f2b54aee3c064736f6c634300050c0032",
  "source": "pragma solidity ^0.5.0;\r\n\r\ncontract Election{\r\n\r\n\tstring public candidate;\r\n\r\n\tstruct Candidate{\r\n\t\tuint id;\r\n\t\tstring name;\r\n\t\tuint voteCount;\r\n\t}\r\n\r\n\tmapping(uint => Candidate) public candidates;\r\n\t// returns an empty candidate if not found, hence we need a count var\r\n\r\n\tmapping(address => bool) public voters;\r\n\r\n\tuint public candidateCount;\r\n\r\n\t// Constructor\r\n\tconstructor() public{\r\n\t\taddCandidate(\"Prerna Garg\");\r\n\t\taddCandidate(\"Komal Chugh\");\r\n\t\taddCandidate(\"Parul Gupta\");\r\n\t}\r\n\r\n\tfunction addCandidate (string memory _name) private{\r\n\t\tcandidateCount++;\r\n\t\tcandidates[candidateCount] = Candidate(candidateCount, _name , 0);\r\n\t}\r\n\r\n\tfunction vote (uint _candidateId) public{\r\n\t\t// not voted before\r\n\t\trequire(!voters[msg.sender]);\r\n\r\n\t\t// valid candidate\r\n\t\trequire(_candidateId > 0 && _candidateId <= candidateCount);\r\n\r\n\t\tvoters[msg.sender] = true;\r\n\r\n\t\tcandidates[_candidateId].voteCount++;\r\n\t}\r\n}",
  "sourcePath": "C:/Users/Prerna Garg/Election-Portal/election/contracts/Election.sol",
  "compiler": {
    "name": "solc",
    "version": "0.5.12+commit.7709ece9.Emscripten.clang"
  },
  "schemaVersion": "3.0.20",
  "updatedAt": "2020-01-09T05:02:36.716Z",
  "networkType": "ethereum",
  "devdoc": {
    "methods": {}
  },
  "userdoc": {
    "methods": {}
  }
}