{
  "contractName": "Election",
  "abi": [
    {
      "inputs": [],
      "payable": false,
      "stateMutability": "nonpayable",
      "type": "constructor"
    },
    {
      "constant": true,
      "inputs": [],
      "name": "candidate",
      "outputs": [
        {
          "internalType": "string",
          "name": "",
          "type": "string"
        }
      ],
      "payable": false,
      "stateMutability": "view",
      "type": "function"
    },
    {
      "constant": true,
      "inputs": [],
      "name": "candidateCount",
      "outputs": [
        {
          "internalType": "uint256",
          "name": "",
          "type": "uint256"
        }
      ],
      "payable": false,
      "stateMutability": "view",
      "type": "function"
    },
    {
      "constant": true,
      "inputs": [
        {
          "internalType": "uint256",
          "name": "",
          "type": "uint256"
        }
      ],
      "name": "candidates",
      "outputs": [
        {
          "internalType": "uint256",
          "name": "id",
          "type": "uint256"
        },
        {
          "internalType": "string",
          "name": "name",
          "type": "string"
        },
        {
          "internalType": "uint256",
          "name": "voteCount",
          "type": "uint256"
        }
      ],
      "payable": false,
      "stateMutability": "view",
      "type": "function"
    }
  ],
  "bytecode": "0x608060405234801561001057600080fd5b506100556040518060400160405280600b81526020017f507265726e6120476172670000000000000000000000000000000000000000008152506100e260201b60201c565b6100996040518060400160405280600b81526020017f4b6f6d616c2043687567680000000000000000000000000000000000000000008152506100e260201b60201c565b6100dd6040518060400160405280600b81526020017f506172756c2047757074610000000000000000000000000000000000000000008152506100e260201b60201c565b610203565b60026000815480929190600101919050555060405180606001604052806002548152602001828152602001600081525060016000600254815260200190815260200160002060008201518160000155602082015181600101908051906020019061014d92919061015e565b506040820151816002015590505050565b828054600181600116156101000203166002900490600052602060002090601f016020900481019282601f1061019f57805160ff19168380011785556101cd565b828001600101855582156101cd579182015b828111156101cc5782518255916020019190600101906101b1565b5b5090506101da91906101de565b5090565b61020091905b808211156101fc5760008160009055506001016101e4565b5090565b90565b610337806102126000396000f3fe608060405234801561001057600080fd5b50600436106100415760003560e01c80633477ee2e146100465780636c8381f8146100fb578063a9a981a31461017e575b600080fd5b6100726004803603602081101561005c57600080fd5b810190808035906020019092919050505061019c565b6040518084815260200180602001838152602001828103825284818151815260200191508051906020019080838360005b838110156100be5780820151818401526020810190506100a3565b50505050905090810190601f1680156100eb5780820380516001836020036101000a031916815260200191505b5094505050505060405180910390f35b61010361025e565b6040518080602001828103825283818151815260200191508051906020019080838360005b83811015610143578082015181840152602081019050610128565b50505050905090810190601f1680156101705780820380516001836020036101000a031916815260200191505b509250505060405180910390f35b6101866102fc565b6040518082815260200191505060405180910390f35b6001602052806000526040600020600091509050806000015490806001018054600181600116156101000203166002900480601f01602080910402602001604051908101604052809291908181526020018280546001816001161561010002031660029004801561024e5780601f106102235761010080835404028352916020019161024e565b820191906000526020600020905b81548152906001019060200180831161023157829003601f168201915b5050505050908060020154905083565b60008054600181600116156101000203166002900480601f0160208091040260200160405190810160405280929190818152602001828054600181600116156101000203166002900480156102f45780601f106102c9576101008083540402835291602001916102f4565b820191906000526020600020905b8154815290600101906020018083116102d757829003601f168201915b505050505081565b6002548156fea265627a7a72315820d00eb2c527cf35ae69a630f0e03adb64ff162345f526b81cdded4780e888f10564736f6c634300050c0032",
  "source": "pragma solidity ^0.5.0;\r\n\r\ncontract Election{\r\n\r\n\tstring public candidate;\r\n\r\n\tstruct Candidate{\r\n\t\tuint id;\r\n\t\tstring name;\r\n\t\tuint voteCount;\r\n\t}\r\n\r\n\tmapping(uint => Candidate) public candidates;\r\n\t// returns an empty candidate if not found, hence we need a count var\r\n\tuint public candidateCount;\r\n\r\n\t// Constructor\r\n\tconstructor() public{\r\n\t\taddCandidate(\"Prerna Garg\");\r\n\t\taddCandidate(\"Komal Chugh\");\r\n\t\taddCandidate(\"Parul Gupta\");\r\n\t}\r\n\r\n\tfunction addCandidate (string memory _name) private{\r\n\t\tcandidateCount++;\r\n\t\tcandidates[candidateCount] = Candidate(candidateCount, _name , 0);\r\n\t}\r\n}",
  "sourcePath": "C:/Users/Prerna Garg/election/contracts/Election.sol",
  "compiler": {
    "name": "solc",
    "version": "0.5.12+commit.7709ece9.Emscripten.clang"
  },
  "schemaVersion": "3.0.20",
  "updatedAt": "2020-01-05T06:42:56.674Z",
  "networkType": "ethereum",
  "devdoc": {
    "methods": {}
  },
  "userdoc": {
    "methods": {}
  }
}